:020000040800F2
:10000000084600209D0200083D310008BF0300089B
:1000100039310008FD1A0008533C000800000000B8
:10002000000000000000000000000000CB360008C7
:10003000991C0008000000000B0300084938000864
:10004000B7020008B7020008B7020008B7020008AC
:10005000B7020008B7020008B7020008B70200089C
:10006000B7020008FD24000829250008B70200088F
:10007000B7020008B7020008B7020008B70200087C
:10008000B7020008B7020008B7020008B70200086C
:10009000B7020008B7020008B7020008552500089B
:1000A000B7020008B7020008B7020008B70200084C
:1000B000C1380008D5380008B7020008B7020008A8
:1000C000B7020008B7020008B7020008B70200082C
:1000D000B7020008ED390008B70200081D3A000811
:1000E000DD240008B7020008B7020008B7020008C4
:1000F000B7020008B7020008B7020008B7020008FC
:10010000B7020008B7020008B7020008B7020008EB
:10011000B7020008B7020008B7020008B7020008DB
:10012000B7020008B7020008B7020008B7020008CB
:10013000B7020008B7020008B7020008B7020008BB
:10014000B7020008B7020008B7020008B7020008AB
:10015000B7020008B7020008B7020008B70200089B
:10016000B7020008B7020008B7020008B70200088B
:10017000B7020008B7020008B7020008B70200087B
:10018000B7020008B702000800F002F800F076F8A5
:100190000AA090E8000C82448344AAF10107DA45E2
:1001A00001D100F06BF8AFF2090EBAE80F0013F0BE
:1001B000010F18BFFB1A43F0010318471C7A000017
:1001C0003C7A000010F8013B0A4413F0030408BF16
:1001D00010F8014B1D1108BF10F8015B641E05D01B
:1001E00010F8016B641E01F8016BF9D1002D15D0D8
:1001F00010F8014B03F00C030C2BA1EB04040ABF15
:1002000010F8013BA4EB8314A4EB032405F10103D4
:1002100014F8016B5B1E01F8016BF9D5914238BFF0
:1002200010F8013BD1D3704700230024002500269D
:10023000103A28BF78C1FBD8520728BF30C148BF49
:100240000B607047662906F07E87642900F05281B2
:10025000782900F08B81732900F0F3850020704726
:100260001FB506F066FF00F057FE040000200021D5
:1002700006F0BEFBE0601FBD10B510BD00F06EFFC4
:100280001146FFF7EDFF01F05FFB00F08CFF03B4B8
:10029000FFF7F2FF03BC03F0D3FD000009488047DD
:1002A00009480047FEE7FEE7FEE7FEE7FEE7FEE758
:1002B000FEE7FEE7FEE7FEE704480549054A064B70
:1002C00070470000593800088901000808400020E4
:1002D000084600200842002008420020EFF310806A
:1002E00072B6704780F310887047434A1368012B39
:1002F00004D04FF001031360404A1060404A11607F
:1003000040484FF0805101607047EFF3108272B6A1
:100310003948016851B34FF0000101603748016866
:1003200091B1EFF309811EF0100F08BF21ED108B82
:1003300021E9F00F4FF000041EF0100F08BF012458
:1003400041F8044D006801602D490968096808C931
:10035000B1E8F00F002B18BFB1EC108B81F30988C6
:100360004EF0100E002B18BF2EF0100E82F31088E6
:100370004EF0040E704722490860EFF3148222F019
:10038000040282F314881D494FF0000008601A49E6
:100390004FF0010008601C484FF47F01D0F80020A6
:1003A00041EA0201016017484FF08051016017488F
:1003B0000068006880F3088861B662B670471EF076
:1003C000040F0CBFEFF30880EFF3098020E9F00F72
:1003D00040F804ED40F804ED1EF0040F0CBF80F36C
:1003E000088880F3098800B504F074FC5DF804EB1C
:1003F0004EF0040E70470000A8100020A01000204E
:10040000A410002004ED00E020ED00E008ED00E085
:10041000704700000FB4044910B503AA029800F019
:1004200015FD10BC5DF814FB640000200FB41CB572
:10043000074B06AA7B4469460090059800F0D7FC5C
:100440000020694600F0E6FC1CBC5DF814FB0000CF
:10045000DD09000070B5044685690068C10601D554
:10046000302600E02026C00707D070BDD4E9012166
:1004700030469047206A401C20626D1EF6D570BD44
:1004800070B5044685690078C00707D170BDD4E90E
:10049000012120209047206A401C20626D1EF6D565
:1004A00070BD70B50C460546012A05D02878800637
:1004B00000D5EA69002302E0012305E05B1C9342BA
:1004C00002D2E05C0028F9D1A869E618C01AA86138
:1004D000286A184428622846FFF7BCFF04E0D5E9E3
:1004E000012114F8010B9047B442F8D32846FFF7D6
:1004F000C7FF70BD2DE9F04106460024106875293C
:10050000314616A510D0AFF30080002802DA404231
:1005100013A507E031688A0701D512A502E0490753
:1005200004D511A5012401E0AFF3008000210A22C7
:1005300006F1240709E0B0FBF2FCB0FBF2F302FB8A
:100540001C00303078541846491C0028F3D123464B
:100550002A463046BDE8F04100F0DCB9000000005A
:100560002D0000002B0000002000000070B50446A4
:100570000D4621461068AFF300802188090502D599
:100580000F4A7A4402E00E4A7A440E32002104F106
:10059000240305E000F00F060009965D5E54491C37
:1005A0000028F7D120780023000704D5702D02D051
:1005B00009B1022311322046BDE8704000F0AAB90B
:1005C000FE7400002DE9F05F894604464FF0000AF2
:1005D000DFF824B1FB44C0F820A02046E16888473A
:1005E00000287DD0252806D0D4E901219047206A33
:1005F000401C2062F1E700255F462046E1688847FD
:100600002028064607DB312E05D2B81910F8200C39
:1006100008B10543F1E7A80701D525F00405C4F8A2
:100620001CA00027C4F818A02A2E09D0304603F0D9
:1006300085FB38B304EB8708303EC8F8186019E032
:1006400059F8041B204604EB87029161E168884752
:10065000012F064618D1E069002820DA25F0200590
:100660001DE0D8F8180000EB800006EB40003038A1
:10067000C8F818002046E1688847064603F05EFB8C
:100680000028EED1012F0AD02E2E08D12046E16895
:1006900088477F1C0646022F45F02005C4DBA06971
:1006A000002803DA404245F00105A061E80701D0C7
:1006B00025F01005A6B1A6F14100192802D8203670
:1006C00045F400654A463146204625604D46FFF711
:1006D000B9FD60B1012807D0ED1D25F0070000E04D
:1006E00007E000F1080978E705F1040975E73046ED
:1006F0007AE7206ABDE8F09FD4740000014A00F058
:10070000B7BB0000C010002030B505460B462A4696
:1007100013F8014B12F8010B08B1A042F8D01CB13C
:10072000002802D06D1CF1E7284630BD40EA0103E5
:10073000024630B59B0710D14FF0013400E008C2EB
:1007400008C91D1B9D4315EAC41FF8D013F0FF0113
:1007500002F8011B0DD01B0AF8E711F8013B002B32
:1007600002F8013B05D011F8013B002B02F8013BD8
:10077000F3D130BD10B5431C02E010F8011B71B17C
:100780008107FAD14FF0013202C88C1A8C4314EA67
:10079000C211F9D0C01A0A0603D0C01E10BDC01A7B
:1007A00010BD0A0401D0801E10BD0902FCD0401EFD
:1007B00010BD032A40F2308010F0030C00F01580C9
:1007C00011F8013BBCF1020F624498BF11F801CB54
:1007D00000F8013B38BF11F8013BA2F1040298BFB9
:1007E00000F801CB38BF00F8013B11F0030300F023
:1007F0006183083AC0F0088051F8043B083A51F888
:1008000004CBA0E80810F5E7121D5CBF51F8043BCB
:1008100040F8043BAFF30080D20724BF11F8013B3E
:1008200011F801CB48BF11F8012B24BF00F8013BA0
:1008300000F801CB48BF00F8012B70474FF00002D1
:1008400000B5134694469646203922BFA0E80C50C6
:10085000A0E80C50B1F12001BFF4F7AF090728BFA1
:10086000A0E80C5048BF0CC05DF804EB890028BF1D
:1008700040F8042B08BF704748BF20F8022B11F046
:10088000804F18BF00F8012B704700004FF0013C6B
:1008900050F8042B51F8043B9A4221D1A2EB0C03EF
:1008A000934313EACC1317D150F8042B51F8043BAF
:1008B0009A4215D1A2EB0C03934313EACC130BD14C
:1008C00050F8042B51F8043B9A4209D1A2EB0C03D7
:1008D000934313EACC13DBD04FF00000704700BF06
:1008E000D01A01BAB1FA81F101F0180122FA01F02F
:1008F000CB40C1F12001DBB2C0B2C01A2CFA01F327
:10090000D11A914311EAC311E6D17047704770477D
:10091000704770472DE9F0470D46994692460446C8
:1009200000F124080168880604D5E06921F010016F
:10093000216000E00120A84201DD471B00E0002704
:10094000A1697A1902EB0900081AA0612078C00693
:1009500002D42046FFF77EFD002608E0D4E90121FD
:100960001AF806009047206A401C761C20624E450B
:10097000F4DB2078C0060AD52046FFF76BFD06E0C1
:10098000D4E9012130209047206A401C2062381EA3
:10099000A7F10107F4DC07E0D4E9012118F805000C
:1009A0009047206A401C2062281EA5F10105F3DC57
:1009B0002046FFF765FD2078000602D50220BDE83D
:1009C000F0870120FBE770472DE9FF4F0C461E46DC
:1009D0004FF0FF378BB0D2E90001DDF860800A905C
:1009E0008A46C1F30A5505B93D46002108464FF035
:1009F0000000BAF1000F00F4400005DA00EB8000BF
:100A00004FF4400101EA50004FEA9059B9F1010F4B
:100A100000DDB9460A9850EA4A000ED044F610505C
:100A2000A5F2FF3545432F14B8F1000F1ED07542D3
:100A3000291E1EDDC9F100021CE0B8F1010F4FF0C4
:100A4000000001D0302103E0F24305E02154401CB6
:100A5000B042FBDB30460022002121540B99C1F843
:100A60000880C1E900200FB0BDE8F08FBD1B6D1CF0
:100A7000DEE74A4600DA694206A800F0D7FA06AB7C
:100A800093E8070003AB83E8070050460A9900F09B
:100A900093FB8DE80700A0F500501F3800900398E5
:100AA000002D0ADD42F21F014A460844002303A933
:100AB0000390684600F0FCFD09E0A0F500504A46AE
:100AC0001F38002303A90390684600F006FE8DE856
:100AD00007000004000C03D04FF0FF30410800E095
:100AE0001046B8F1000F03D00022009215461EE018
:100AF000751E05D400F014FA303262556D1EF9D51A
:100B0000B3460122084302D000227F1C04E0207873
:100B1000302801D100227F1E002A099784D01DE0D1
:100B2000112D07DA00F0FCF9303262556D1C50EAE5
:100B30000102F5D1084302D00098C8B10EE00021AF
:100B4000681E05E0235C625C63542254401E491C0D
:100B50008142F7DBAB46A81B401E0990002004F839
:100B60000B000B98099AC0F80880C0E9002B7AE7BF
:100B700011264FF0000857E72DE9F04F884604464C
:100B8000D21D22F0070191B0D1E90001CDE90A019F
:100B900003F08CF802460B98C00F01D02D2007E01F
:100BA0002068810701D52B2002E0202101EAC00046
:100BB000032A099001D0072A05DB03464146204657
:100BC00000F0F4F90BE12078800601D5E06900E03F
:100BD0000620B8F1650F814606D0B8F1660F18D02F
:100BE000B8F1670F70D131E00020B9F1110F00901A
:100BF00001DB112301E009F101030AAA01A90CA8F4
:100C0000FFF7E2FEDDE90C70002609F101058346DD
:100C100047E001204B4600904FF000470AAA01A987
:100C20000CA8FFF7D1FEDDE90DB00C995D4600265A
:100C300010B909F101000D18B9EB050003D4C0F19A
:100C4000FF3609F10105A5EB09002BE0B9F1010F11
:100C500001DA4FF001090020B9F1110F0090484668
:100C600001DD112300E003460AAA01A90CA8FFF741
:100C7000ABFEDDE90C704D46002683462078000768
:100C80000AD4AB4500DA5D4601A8012D04DD411907
:100C900011F8011C302907D04F4502DA17F1040F73
:100CA00004DA012082460FE06D1EEEE7002F02DC21
:100CB000ED1B3E4403E0781CA84200DD7D1CB81B00
:100CC00000F1010A4FF000472078000703D4AA453D
:100CD00001DB4FF0FF3A0021B7F1004F0DF143085F
:100CE0008DF8431024D002202B23002F01DA7F42FD
:100CF0002D230A21021EA0F1010000DC5FB197FB49
:100D0000F1FC97FBF1F201FB1C7C17460CF1300C57
:100D100008F801CDEEE7A8F101000370218809056C
:100D200001D5452100E06521A0F1010800F8011C72
:100D300009980FA9A1EB0807FF1D00B10120411977
:100D400001EBEA70A1693844081A401EA0612078BE
:100D5000C00602D42046FFF77DFB099828B1D4E9EC
:100D600001219047206A401C20622078C00622D5CD
:100D70002046FFF76FFB1EE0002E04DBB34502DDCB
:100D800001A8805D00E03020D4E901219047206A6D
:100D9000401C2062761CAAF101005FEA000A0AD119
:100DA00000F0BAF8C0680168405CD4E901219047BE
:100DB000206A401C2062281EA5F10105DCDC07E04A
:100DC000D4E9012118F8010B9047206A401C2062E9
:100DD000381EA7F10107F3DC2046FFF751FB032083
:100DE00011B041E601694A1C02610878704700B5FC
:100DF0008FB0CDE901310021059105497944CDE954
:100E0000031011466846FFF7DDFB0FB000BD000080
:100E1000E5FFFFFF0A6802F8010B0A60704710B592
:100E2000436913B1AFF3008001E0FFF73AFB012003
:100E300010BD127800F124010A7000224A700122CC
:100E4000EDE711684FF0FF32E9E70000074B70B59E
:100E50000D467B44FFF7CBFF0446284600F058F9C7
:100E600010B14FF0FF3070BD204670BD77340000E8
:100E70002DE9F04115460E46040002D12C6804B954
:100E80000BA4204600F058F90444207870B127469E
:100E90003146384600F040F90444207810B1002073
:100EA00004F8010B38462C60BDE8F0810027F9E713
:100EB0000000000010B5203AC0F00B80B1E81850D7
:100EC000203AA0E81850B1E81850A0E81850BFF434
:100ED000F5AF5FEA027C24BFB1E81850A0E81850D3
:100EE00044BF18C918C0BDE810405FEA827C24BF27
:100EF00051F8043B40F8043B08BF7047D20728BFB5
:100F000031F8023B48BF11F8012B28BF20F8023B03
:100F100048BF00F8012B704700487047C43F0020CD
:100F200030B5B0F10A024FEA900E71F100034EEABB
:100F3000817EB0EB0E0061EB91014FEA101E4EEA8C
:100F4000017E10EB0E0041EB11114FEA102E4EEA1C
:100F5000016E10EB0E0041EB11214FEA104E4EEAEC
:100F6000014E10EB0E0041EB1141401841F1000120
:100F70004FEAD00040EA41704FEAD10110EB800502
:100F80004FEA810444EA907444EB01046D1944EB88
:100F90000404521BA3414FF0000348BF0A3200D59E
:100FA00030BD401C41F1000130BD00002DE9F04191
:100FB0001F46044603260168072A01F4006004DB8B
:100FC00008B116A505E016A503E008B115A500E0D7
:100FD00015A521F010002060A069C01EA0610FB10E
:100FE000401EA0612046FFF735FA4FB1D4E9012138
:100FF00038469047206A401C2062C01C206206E0F0
:10100000206AFAE7D4E9012115F8010B9047761E12
:10101000F8D22046FFF734FABDE8F0814E414E0089
:101020006E616E00494E4600696E66002DE9F0471C
:10103000814616468AB0354878440DC88DE80D00C3
:1010400032487844801C03AC0DC884E80D0041F69A
:101050009B300844372190FBF1F290FBF1F5A5F1AC
:10106000800501FB12041B3C02D56442012000E014
:101070000020DFF898A080460027FA44AAF1BE0AB3
:101080000EE0E0070AD03246684607EB470101232D
:101090000AEB810100F021FB8DE8070064107F1C42
:1010A000002CEED1194F7F44AE3F19E0E80715D070
:1010B00007EB04100DF1180A90E80E008AE80E0004
:1010C000C068F04201D1981908903246012306A960
:1010D00003A800F002FB03AB83E807006D10641C5B
:1010E000002DE3D14FF0010332466946B8F1000FFD
:1010F00003A802D000F0DCFA01E000F0EEFAC9E942
:101100000001C9F808200AB0BDE8F087006B0000B4
:10111000007B00F08000704730B503461D781DB19C
:101120000A4603E0AC4201D1181A30BD12F8014B57
:10113000002CF7D15B1CF1E730B503461D783DB1BB
:101140000A4612F8014B1CB1AC42FAD15B1CF5E720
:10115000181A30BD00487047A43F00207546FFF7BD
:10116000F9FFAE4605006946534620F00700854664
:1011700018B020B5FFF7A0F8BDE820404FF00006FA
:101180004FF000074FF000084FF0000B21F007016F
:10119000AC46ACE8C009ACE8C009ACE8C009ACE8B2
:1011A000C0098D46704710B50446AFF30080204655
:1011B000BDE81040FFF76BB85FEA400C08BF91F044
:1011C000000F4FEA8C234FEAC12243EA51514FEA04
:1011D0001C5018BF00F5F0404FEA300018BF41F036
:1011E00000415FEA6C5C00F02980BCF1FF3F08BF62
:1011F00040F080407047130C06BF12044FF0100CF3
:101200004FF0000C130E04BF12020CF1080C130F68
:1012100004BF12010CF1040C930F04BF92000CF1F7
:10122000020CD30F04BF52000CF1010C11464FF019
:101230000002A0F11F00A0EB0C00704711F0004F5E
:1012400008BF704731F000413FF4D5AF0B0C06BF2B
:1012500009044FF0100C4FF0000C0B0E04BF0902F4
:101260000CF1080C0B0F04BF09010CF1040C8B0FDF
:1012700004BF89000CF1020CCB0F04BF49000CF134
:10128000010CCCF12003A0EB0C0022FA03F302FACC
:101290000CF241EA030100F10100704720F07F4C9D
:1012A00080EA030023F07F47ACEB070303F57C5390
:1012B00000F0004003F1FF032DE980494FEA154B90
:1012C00009B44FEA144325EA0B4E24EA03480FF20F
:1012D000042606EB132749083E785FEA320203FB37
:1012E0000667C7F5000707FB06F64FEA54374FEAD3
:1012F000D64606F1020607FB066CCCF1005C4FEA0D
:101300001C472CEA074C07FB06F40CFB06F504EB24
:1013100015464FEA961634BF00204FF000404FEAC2
:10132000D13706FB07FC4FEA1C4C0CFB0BF7D21B1A
:1013300003FB0CF761EB07010CFB0EF7B0EB07406A
:1013400072EB17420CFB08F734BFA2EB0742B2EB7B
:10135000074261EB17414FEA0C444FEA910706FB45
:1013600007FC4FEA1C4C0CFB0BF7B0EBC74072EBD1
:10137000573203FB0CF734BFA2EBC742B2EBC742B4
:1013800061EB57310CFB0EF7B0EBC70072EB5772F5
:101390000CFB08F734BFA2EBC702B2EBC70261EB4C
:1013A0005771039F4FEA816141EA921104EBCC042B
:1013B0004FEAD1374FEA826206FB07FC42EA9012FD
:1013C0004FEA80604FEA1C4C0CFB0BF7D21B03FB6F
:1013D0000CF761EB07010CFB0EF7B0EB074072EB6B
:1013E00017420CFB08F734BFA2EB0742B2EB0742EF
:1013F00061EB17414FEA8C554FEA910704EB9C24AF
:1014000006FB07FC4FEA1C4C0CFB0BF7B0EBC7408C
:1014100072EB573203FB0CF734BFA2EBC742B2EBBF
:10142000C74261EB57310CFB0EF7B0EBC70072EB14
:1014300057720CFB08F734BFA2EBC702B2EBC7022E
:1014400061EB577115EB4C254FEA816141EA92112E
:101450004FEA82624FEAD13742EA901206FB07FC5C
:1014600044F100044FEA80604FEA1C4C0CFB0BF780
:10147000D21B03FB0CF761EB07010CFB0EF7B0EB83
:10148000074072EB17420CFB08F734BFA2EB074290
:10149000B2EB074261EB174115EB1C154FEA8131A6
:1014A00041EA92414FEA823242EA90424FEA80306A
:1014B0004FEA0C7644F1000448EA03434EEA0B4835
:1014C0004FF0000EB2EB080C71EB030724BF62462D
:1014D00039464EEB0E0E4FF0000B001852414941B9
:1014E0004BEB0B0BB2EB080C71EB03077BF1000B22
:1014F00024BF624639464EEB0E0E4FF0000B00182B
:10150000524149414BEB0B0BB2EB080C71EB03075B
:101510007BF1000B24BF624639464EEB0E0E51EABA
:10152000020718BF46F0010616EB0E7655F10002D1
:1015300054F1000103D5BDE88901BDE80088BDE88C
:101540008901BDE80048B619524141EB0101A3F100
:101550000103704780807F7E7D7C7B7A7978777607
:1015600076757473727171706F6E6E6D6C6C6B6A80
:101570006A6968686766666564646363626161601E
:10158000605F5F5E5E5D5D5C5C5B5B5A5A5959589B
:101590005857575656555555545453535252525105
:1015A000515050504F4F4F4E4E4D4D4D4C4C4C4B5B
:1015B0004B4B4A4A4A4949494848484747474746A2
:1015C00046464545454444444443434343424242DE
:1015D00042414141002B9C4630D477002BD01CB5B2
:1015E0004FEA370703B44FF010004FF01001BAF183
:1015F000000F06D0BCF1000FDCBF40F0080040F047
:1016000008014FF000000FBCBDE810400BF1010BCA
:10161000BBF1010F08BF5FEA170722BF12F10102F9
:1016200011F101014FF0004143F1000300F00040CF
:1016300043EA00007047F9D35708D0E746EA064668
:1016400013F1400F4FEA16461FDD13F1200FDFBFE5
:1016500016430A46002120335B42BED0C3F1200767
:1016600046EA064602FA07F74FEA164646EA070632
:10167000C3F1200722FA03F201FA07F721FA03F176
:101680004FF0000342EA0702A7E746EA020646EAED
:1016900006464FEA164646EA0106BCBF46EA06463B
:1016A000360C4FF000034FF000024FF0000194E7BA
:1016B0002DE9804C9A46934670B491E8380007C8EB
:1016C00031EA400C48BF34EA430C03D5FFF7E6FD8E
:1016D000FFF780FFF0BCBDE8008C2DE9804C9A46F6
:1016E000934670B491E8380007C810F0804F08BFE7
:1016F00013F0804F03D100F005F8FFF76BFFF0BC4B
:10170000BDE8008C20F07F4780EA030023F07F4C87
:1017100007EB0C03A3F57C5300F00040A3F1FE039C
:1017200092F0000F00F0B38095F0000F00F077808A
:101730002DE901494FEA11404FEA144621EA0048D9
:1017400000FB06FC24EA064708FB06F607FB08F840
:1017500000FB07F718EB06484CEB164C4FEA124B10
:1017600018EB07484FEA15464CEB174022EA0B4EA0
:101770000BFB06FC25EA06470EFB06F607FB0EFEF2
:101780000BFB07F71EEB064E4CEB164C4FF000061A
:101790001EEB074E4CEB174B18EB0B0840F100000B
:1017A00018EB0E0B58EB000840F100008F1A4FF0B9
:1017B00000013CBFC943661B14BFB5EB040C0021FC
:1017C0003CBFC943F61B4FEA17444EEA8E0E27EA88
:1017D00004454FEA1C4704FB07622CEA074C05FB53
:1017E00007F70CFB05F604FB0CFC16EB074642EB77
:1017F000174216EB0C4642EB1C421BEB060658EB5D
:101800000202414146EA9E0601D5BDE80189B619AA
:10181000524141EB0101A3F10103BDE801894FEA07
:1018200014454FEA114724EA054621EA074C05FB17
:1018300007F406FB07F70CFB06F105FB0CFC11EBAC
:10184000074144EB17444FEA124711EB0C4144EBBC
:101850001C4422EA074C05FB07F206FB07F70CFBCA
:1018600006F605FB0CFC16EB074642EB174216EB9F
:101870000C4642EB1C456A1854F1000148BF704702
:10188000B619524141EB0101A3F10103704795F0F4
:10189000000F37D04FEA11424FEA144721EA0246BF
:1018A00024EA074C02FB07F106FB07F70CFB06F4E2
:1018B00002FB0CFC14EB074441EB17414FEA1547C0
:1018C00014EB0C4441EB1C4125EA074C02FB07F5E5
:1018D00006FB07F70CFB06F602FB0CFC16EB0746B3
:1018E00045EB174516EB0C4645EB1C42121951F11E
:1018F000000148BF7047B619524141EB0101A3F105
:10190000010370474FEA14454FEA114724EA0546A0
:1019100021EA074C05FB07F106FB07F70CFB06F273
:101920004FF0000605FB0CFC12EB074241EB1741A0
:1019300012EB0C4251EB1C4148BF7047921841EB2F
:101940000101A3F10103704710B5FEF7C7FC04F0D5
:10195000CDFB002010BD21B1826842F001028260FF
:1019600003E0826822F00102826070470021084A89
:101970001168084A1140D0E900231A4383681A43CA
:10198000C3681A431143044AC2F8041370470000A5
:1019900004230140E030FCFF0020014010B501218C
:1019A000080201F07DFD00214FF4807001F078FD08
:1019B00010BD0146C86C80B2704702460020136813
:1019C0000B400BB1012000E00020704730B502460B
:1019D000002000235068104C20400D790C6844EA28
:1019E00005242043506090680C4C2040D1E90354FA
:1019F0002C438D682C434D7944EA45042043906084
:101A0000D06A20F470000C7D641EE4B2234340EAE7
:101A10000350D06230BD0000FFFEFFFCFDF7FFC0A9
:101A2000F0B504460D4600200021092D11DDE068C7
:101A3000A5F10A0606EB4607072606FA07F18843D2
:101A4000A5F10A0606EB460603FA06F10843E06034
:101A50000CE0206905EB4507072606FA07F18843E5
:101A600005EB450603FA06F108432061072A0FDA61
:101A7000606B561E06EB86071F2606FA07F18843A1
:101A8000561E06EB860605FA06F10843606322E05F
:101A90000D2A0FDA206BD61F06EB86071F2606FAE3
:101AA00007F18843D61F06EB860605FA06F10843C0
:101AB000206310E0E06AA2F10D0606EB86071F2600
:101AC00006FA07F18843A2F10D0606EB860605FA31
:101AD00006F10843E062F0BD816841F08041816019
:101AE000704710B5142001F05FFD044604F00300B8
:101AF00018B90321142001F009FE10BD00BFFEE754
:101B00002DE9F0410746884615460421052000F0DE
:101B100032F880210A2001F0F9FD0021012002F0B5
:101B2000A9F8002405E0395D092002F0A3F8601C43
:101B300084B24445F7DB0321012002F09BF84FF407
:101B40007A7400BF052001F02FFD0646601E84B2A6
:101B50001CB106F004000028F4D0222001F024FD7E
:101B60002870212001F020FD68700021012002F082
:101B700081F8BDE8F08170B505460C460026284680
:101B800001F012FD064626EA0401284602F072F82A
:101B900070BD10B50446204603F069FE10BD10B5B7
:101BA00004464FF47A7104FB01F003F060FE10BDAF
:101BB0001048006820F080700E49086008460068F0
:101BC00040F0807008600C48006820F001000A496D
:101BD00008600846006840F0010008600020486086
:101BE00000BF00BF00BF0448406808B10020704734
:101BF0000120FCE7FCED00E0001000E001B5094920
:101C0000486809490968094AB1FBF2F1009A514351
:101C1000009100BF03494968091A009A9142F9D31B
:101C200008BD0000001000E00810002040420F0036
:101C300001B50949486809490968094AB1FBF2F147
:101C4000009A5143009100BF03494968091A009A5C
:101C50009142F9D308BD0000001000E008100020F8
:101C600040420F0001B50949486809490968094A15
:101C7000B1FBF2F1009A5143009100BF034949685A
:101C8000091A009A9142F9D308BD0000001000E043
:101C90000810002040420F007047000010B502A05D
:101CA00000F000FB10BD000041540D0A00000000D0
:101CB00010B502A000F0F6FA10BD00004154453006
:101CC0000D0A00001FB50446224604A16846FEF72F
:101CD000ADFB684600F0E6FA04B010BD41542B435A
:101CE00049504D55583D25640D0A000010B504A01B
:101CF00004F052FE4FF47A70FFF74BFF10BD000066
:101D00002B2B2B002DE9F0410020244908602449A9
:101D1000086000243EE00020204908602049086057
:101D200020A004F039FE002530E06420FFF731FFE9
:101D30001A480068002828D000201D49184A126857
:101D400088541CA0FEF766FB1FA11948FEF7DCFCB7
:101D5000D0B11EA11648FEF7D7FC06461DA1B01D46
:101D6000FEF7D2FC07461CA11148FEF7CDFC064643
:101D700018A1B01DFEF7C8FC0746002007490860FF
:101D800007490860BDE8F08102E06D1C042DCCDB42
:101D900000BF641C052CBEDB0120F3E760000020BF
:101DA0005C00002041542B43494653520D0A000069
:101DB000443A00205553415254312072657369767C
:101DC00065203A2573200A004F4B000054414950CA
:101DD0002C00000022000000414D41432C00000077
:101DE00070B500201B4908601B49086000242CE0E6
:101DF0000020184908601849086018A004F0CCFDBC
:101E000000251EE02820FFF7C4FE12480068B8B184
:101E100000201649104A1268885415A0FEF7FAFAF5
:101E200000200C4908600C49086016A10F48FEF715
:101E30006BFC20B114A0FEF7EDFA002070BD02E0AB
:101E40006D1C042DDEDB00BF641C052CD0DB0120E3
:101E5000F4E70000600000205C00002041542B43A8
:101E6000495053454E440D0A00000000443A0020FA
:101E700055534152543120726573697665203A2575
:101E800073200A003E000000455350383236362099
:101E90006275696C6420636F6E6E65637420737520
:101EA0006363657373210A00F0B58DB004460D4677
:101EB00000201E4908601E4908602B4622461DA1CD
:101EC0006846FEF7B3FA00262CE0684604F064FD8D
:101ED000002723E04FF47A70FFF75BFE1348006899
:101EE00000281AD000201A49114A1268885419A0F3
:101EF000FEF790FA00200D4908600D4908601AA10C
:101F00001348FEF701FC38B12A46214618A0FEF717
:101F100081FA00200DB0F0BD02E07F1C042FD9DB58
:101F200000BF761C052ED0DB0120F3E76000002007
:101F30005C00002041542B43495053544152543DBE
:101F400022544350222C222573222C25640D0A0092
:101F5000443A0020555341525431207265736976DA
:101F600065203A2573200A00434F4E4E45435400E6
:101F70004553503832363620636F6F6E6E6563742A
:101F80002069703A25732C706F72743A256420733F
:101F9000756363657373210A0000000010B5C820E3
:101FA000FFF7F7FDFFF77AFE10B124A0FEF732FA33
:101FB000FFF77EFE10B128A0FEF72CFA032000F0F8
:101FC00055FA10B1C820FFF7E4FD2AA12CA000F0BB
:101FD000F3F810B12BA0FEF71DFA4FF47A70FFF75B
:101FE000D8FD0020FFF76EFE10B130A0FEF712FA08
:101FF000FFF788FE10B136A0FEF70CFA50213AA088
:10200000FFF752FF10B13CA0FEF704FA012000F0E8
:10201000ABF810B140A0FEF7FDF900F0F9FB444920
:102020000870032802D043A0FEF7F4F9FFF7D8FEAA
:1020300010B145A0FEF7EEF910BD00004553503831
:1020400032363620636F756C646E277420666F7548
:102050006E64210A000000004553503832363620A5
:10206000636C6F7365206563686F206661696C21BE
:102070000A000000333073697838383800000000F7
:10208000333036004553503832363620636F6E6E2B
:1020900065637420737369642670617373776F72FC
:1020A0006473206661696C210A0000004553503852
:1020B0003236362073657420636F6E6E65637420EC
:1020C00073657474696E67206661696C210A00002B
:1020D0004553503832363620676574206970206663
:1020E00061696C210A0000003138332E3233302E02
:1020F00034302E333300000045535038323636200A
:10210000636F6E6E656374207365727665722066A8
:1021100061696C210A000000455350383236362080
:10212000736574206D6F6465206661696C210A00B7
:102130000410002045535038323636206C696E6BDF
:10214000206661696C210A004553503832363620CA
:102150006275696C6420636F6E6E6563742066617E
:10216000696C210A0000000010B586B0044614B165
:10217000012C0AD104E008A101A8FEF7D7FA04E077
:1021800009A101A8FEF7D2FA00BF00BF01A800F024
:1021900089F806B010BD000041542B4349504D4F03
:1021A00044453D300D0A000041542B4349504D4FEA
:1021B00044453D310D0A0000F0B58DB004460D4692
:1021C00000201D4908601D4908602B4622461CA1BD
:1021D0006846FEF72BF9002629E0684604F0DCFB90
:1021E00069461EA0FEF716F900271DE04FF47A603D
:1021F000FFF7CFFC10480068A8B100201A490F4A29
:10220000126888540C4908600C49086017A11648E8
:10221000FEF77AFA38B12A46214617A0FEF7FAF8F7
:1022200000200DB0F0BD7F1C042FDFDB761C052ED7
:10223000D3DB0120F5E70000600000205C000020F7
:1022400041542B43574A41505F4445463D22257334
:10225000222C222573220D0A000000007374723AAA
:102260002025730A00000000443A002057494649DF
:1022700020474F54204950004553503832363620BD
:10228000636F6E6E65637420737369643A25732C93
:102290005053573A25732073756363657373210A2E
:1022A0000000000070B5054600203549086035493A
:1022B000086035A12846FEF7E9FA20B9FFF716FDB8
:1022C0000020FFF751FF002456E000202C49086051
:1022D0002C490860284604F05FFB29462CA0FEF735
:1022E00099F8002644E06420FFF753FC2448006876
:1022F00000283CD000202849224A1268885427A090
:10230000FEF788F800201E4908601E49086028A1D1
:102310002148FEF7F9F9002828D026A12846FEF723
:10232000F3F918B125A0FEF775F81DE02BA128469A
:10233000FEF7EAF918B12BA0FEF76CF814E033A110
:102340002846FEF7E1F918B131A0FEF763F80BE07B
:1023500037A12846FEF7D8F918B137A0FEF75AF88A
:1023600002E03EA0FEF756F8002070BD02E0761CA9
:10237000042EB8DB00BF641C052CA6DB0120F4E7AB
:10238000600000205C00002041540D0A00000000A5
:10239000636D64203A257300443A0020555341523E
:1023A000543320726573697665203A2573200A00DC
:1023B0004F4B000043574D4F4445000045535038A4
:1023C0003236362073657420776F726B206D6F64C0
:1023D000652073756363657373210A004349504D2B
:1023E000555800004553503832363620636F6E6EB4
:1023F0006563742073657474696E672073657420F7
:1024000073756363657373A3A10A00004530000010
:102410004553503832363620636C6F7365206563E0
:10242000686F2073756363657373A3A10A0000006E
:102430004349504D4F4445004553503832363620BD
:10244000535441204349506D6F6465207365742077
:1024500073756363657373210A0000004553503838
:102460003236362065786973740A000010B586B07C
:102470000446012C04D0022C07D0032C0FD109E014
:102480000AA101A8FEF752F909E00CA101A8FEF784
:102490004DF904E00DA101A8FEF748F900BF00BF07
:1024A00001A8FFF7FFFE06B010BD000041542B430A
:1024B000574D4F44453D310D0A00000041542B4318
:1024C000574D4F44453D320D0A00000041542B4307
:1024D000574D4F44453D330D0A00000010B5012112
:1024E000880701F016FA42F21071880601F03AFAF4
:1024F0004FF4006000F03CF810BD000010B5084833
:10250000006848B942F21070FFF7ACFB044800685D
:1025100010B9012003490870082000F029F810BD07
:102520000C0242420310002010B50848006848B968
:1025300042F21070FFF796FB0448006810B90120C2
:1025400003490880102000F013F810BD1002424229
:102550005800002010B5402000F010F8012801D1EB
:1025600002490880402000F003F810BD560000200A
:102570000149086070470000143C014001460020FA
:10258000034A12680A400AB1012000E000207047A7
:10259000143C0140002123498279002A3AD00A469E
:1025A000126803689A430B461A600A1D1268036892
:1025B0009A430B1D1A60027911440A6803681A4392
:1025C0000A60184A0832126803689A43154B0833A8
:1025D0001A601A1D126803689A43124B0C331A6072
:1025E0004279102A0ED11A1F126803681A430D4B44
:1025F00008331A601A1D126803681A43094B0C331A
:102600001A600DE00749427911440A6803681A43C9
:102610000A6005E0027911440A6803689A430A6077
:1026200070470000003C014001490860704700000D
:102630000C3C024009201349096801F48031B1F5CE
:10264000803F01D101201CE00E49096801F0100112
:1026500009B1062015E00B49096801F4807109B140
:1026600002200EE00749096801F0EF0109B10720D7
:1026700007E00449096801F0020109B1082000E0FF
:10268000092070470C3C02400348006840F00040BD
:102690000149086070470000103C024030B5024616
:1026A0000C46092500F034F80546092D19D10E48CD
:1026B000006820F440700C4908600846006840F447
:1026C000007008600846006840F00100086014606F
:1026D00000F01EF805460448006820F00100024999
:1026E0000860284630BD0000103C024005480068E4
:1026F00000F0004028B1044802490C390860034842
:1027000008607047103C024023016745AB89EFCD5C
:1027100008B509200090FFF78DFF009002E0FFF759
:1027200089FF00909DF800000128F8D09DF8000076
:1027300008BDF0B50A4600210023002400BF3DE09B
:10274000012505FA01F3156805EA03049C4234D11A
:1027500005684F000326BE40B543056015794E005D
:10276000B5400668354305601579012D02D015790D
:10277000022D16D185684F000326BE40B543856003
:1027800055794E00B5408668354385604568012619
:102790008E40B5434560456896798E40B6B2354364
:1027A0004560C5684F000326BE40B543C560D57976
:1027B0004E00B540C6683543C560491C1029BFD3DB
:1027C000F0BDF0B5002300244D07ED0E02FA05F32D
:1027D000CE1000F1200555F826504E07F70E0F26B3
:1027E000BE40B543CF1000F1200646F82750CE106A
:1027F00000F1200555F8265045EA0304CE1000F1FB
:10280000200545F82640F0BD41837047018370479D
:1028100070B500202B4908602B4908602BA0FDF7FC
:10282000F9FD00254AE00020264908602649086095
:102830002AA004F0B1F82DA0FDF7ECFD002639E048
:102840002820FFF7A6F91F480068002831D0002093
:1028500028491D4A1268885427A0FDF7DBFD002097
:10286000184908601849086028A12248FDF74CFF64
:1028700030B10224214628A0FDF7CCFD204670BDD2
:102880002BA11C48FDF740FF30B10324214622A0B4
:10289000FDF7C0FD2046F2E728A11648FDF734FFFA
:1028A00030B1042421461CA0FDF7B4FD2046E6E724
:1028B00002E0761C042EC3DB00BF6D1C052DB2DBCD
:1028C0000020DCE7600000205C00002067657420C9
:1028D0007374617475730D0A0000000041542B433A
:1028E00049505354415455530D0A00003030303094
:1028F000300A0000443A00205553415254312072AE
:102900006573697665203A2573200A005354415453
:1029100055533A320D0A000038323636206C696E53
:102920006B20737461747573203A2025640D0A005E
:102930005354415455533A330D0A000053544154F3
:1029400055533A340D0A000070B5024600240025A4
:1029500000230020958A138B1B0445EA030626F00A
:102960007F4404EA01068E4201D1012000E00020EC
:1029700070BD21B1028842F00102028004E00288A9
:102980004FF6FE731A4002807047000000B587B012
:102990000121480500F054FD0121022000F040FD16
:1029A0004FF44070019002208DF809008DF8080066
:1029B00001208DF80A0000208DF80B0001A91648AF
:1029C000FFF7B7FE042208211348FFF7FAFE04229E
:1029D00009211148FFF7F5FE104800F023F8002008
:1029E000ADF810004BF6FF70ADF812003020ADF8D6
:1029F00014004FF48060ADF816000001ADF8180027
:102A00000748039003A9054800F072F80121034824
:102A1000FFF7AFFF07B000BD0004024000540040C4
:102A2000801A060010B504461348844209D10121DA
:102A3000480500F015FD00214FF4001000F010FDD6
:102A400018E00E48844209D10121880500F008FDF4
:102A500000214FF4800000F003FD0BE008488442A1
:102A600008D10121C80500F0FBFC00214FF4000053
:102A700000F0F6FC10BD000000540040005800407B
:102A8000005C004021B1028842F48072028004E0C0
:102A900002884FF6FF631A400280704721B1028816
:102AA00042F40072028004E002884FF6FF531A409D
:102AB000028070470CB5024600200023019300936A
:102AC00000920B0F019321F07F41019B1BB1009BF2
:102AD0001433009303E0090C009B18330093009B10
:102AE0001B680B400BB1012000E000200CBD000072
:102AF0002DE9FF4704460D460026B1460427DFF8BE
:102B0000CC80A6884FF6C0700640684600F0D8FC1E
:102B1000DDF808802E48B8FBF0F01FFA80F946EA8D
:102B20000906A68020884FF6FE7108402080002606
:102B30002849286888420CD828684000B8FBF0F083
:102B400087B2042F00DA04273E4309F101002084F4
:102B500027E0E8884BF6FF71884206D1286800EB31
:102B60004000B8FBF0F087B209E0286800EBC00134
:102B700001EB0010B8FBF0F087B247F48047C7F3D1
:102B80000B0008B947F0010747F4004006434FF433
:102B9000967009FB00F04FF47A7190FBF1F0401C45
:102BA0002084A683208840F00100208026884FF6EC
:102BB000F5300640A8886989084306432680A8891D
:102BC000298908432081BDE8FF87000000127A00B0
:102BD00040420F00A086010012B141F0010101E066
:102BE00001F0FE01018270470182704770B5044612
:102BF0000D4600BF4FF400311C48FFF75BFF002873
:102C0000F8D101211948FFF73DFF00BF18491748C7
:102C1000FFF79AFE0028F9D0002278211348FFF729
:102C2000DBFF00BF13491148FFF78EFE0028F9D0E3
:102C300021460E48FFF7D8FF00BF0E49891C0B48FC
:102C4000FFF782FE0028F8D029460848FFF7CCFF9E
:102C500000BF0849891C0548FFF776FE0028F8D018
:102C600001210248FFF71AFF70BD00000054004028
:102C700001000300820007002DE9FC410446002703
:102C800008210846FEF777FF80210E20FEF773FF2C
:102C900000210D2000F0EEFF9320207020206070B6
:102CA00001A823460222214600900C2000F020F9C2
:102CB00006465EB9002503E0605D4740681CC5B26A
:102CC000042DF9DB605DB84200D0022680210E2081
:102CD00000F01CFD3046BDE8FC812DE9F04385B0D5
:102CE00006460F46904699468DF804608DF80570AB
:102CF000002406E018F8041001AAA01C1154601C5E
:102D0000C4B2062CF6DB002407E019F8041001AA6F
:102D100004F108001154601CC4B2042CF5DB04A8B3
:102D200001AB0C2201A900900E2000F0E1F805464D
:102D30002DB9082000F038FC00F0080000B9022589
:102D4000284605B0BDE8F08310B500F057FC00F050
:102D500069F88D212A2000F08DFF3E212B2000F004
:102D600089FF32212D2000F085FF00212C2000F06A
:102D700081FF4021152000F07DFF3D21112000F052
:102D800079FF0021012000F075FFFEF7AAFE10BDBB
:102D90002DE9FC4106460C46302020706670A21CCE
:102DA00002212046FEF7ACFE01A82346042221465C
:102DB00000900C2000F09CF807461FB9BDF80400F5
:102DC000902800D00227002504E0615D05A0FDF7F2
:102DD00021FB6D1C102DF8DB04A0FDF71BFB384612
:102DE000BDE8FC8120202530327800000A00000078
:102DF0007CB506460C4607210D2000F03BFF2670EF
:102E000001A823460122214600900C2000F070F812
:102E100005461DB9BDF80400102800D0022528463B
:102E20007CBD000010B54FF400710D48FFF7EEFCBB
:102E30000120FEF7FDFE4FF400710948FFF7E4FCA6
:102E40000120FEF7F5FE4FF400710548FFF7DEFCA8
:102E50000120FEF7EDFE0F21012000F00BFF10BD59
:102E600000080240F0B585B0064693208DF80400B6
:102E700070208DF8050000208DF80A0000240BE07A
:102E8000315D01AAA01C11549DF80A00315D484033
:102E90008DF80A00601CC4B2042CF1DB0DF10B02AA
:102EA000072101A8FEF72CFE08210846FEF763FE65
:102EB00004A801AB092201A900900C2000F018F829
:102EC000074637B9BDF81000182802D19DF8045004
:102ED00000E00025294603A0FDF79CFA284605B02E
:102EE000F0BD000073697A652025640D0A000000BA
:102EF0002DE9FE4F0646884691469A46DDF830B0E9
:102F0000022002900020019000900C2E06D00E2E80
:102F100009D1122001901020009005E07720019047
:102F20003020009000E000BF00BF019840F0800119
:102F3000022000F09FFE80210420FEF71CFE80216D
:102F40000A2000F0E3FB0021012000F093FE0025A1
:102F500006E018F80510092000F08CFE681C85B208
:102F60004D45F6DB3146012000F084FE0C2E03D1E6
:102F700080210D2000F0CAFB42F2107500BF042032
:102F800000F012FB0446681E85B235B104F0010062
:102F900018B9009820400028F1D080210D20FEF7BC
:102FA000EAFD002D36D0062000F0FEFA00F01B00EE
:102FB00070BB0198204000F0010008B10120029090
:102FC0000C2E22D10A2000F0EFFA04460C2000F06B
:102FD000EBFA00F007072FB1601E07EBC000ABF85B
:102FE000000002E0E000ABF8000004B90124122C5C
:102FF00000DD1224002506E0092000F0D5FA0AF8C9
:103000000500681C85B2A542F6DB0020029001E0B5
:103010000220029080210C2000F02CFE00210120D3
:1030200000F028FE0298BDE8FE8FF0B587B0064696
:103030000F46A0208DF804008DF805600DF1060202
:10304000022101A8FEF75CFD06A801AB042201A93C
:1030500000900C20FFF74CFF05464DB9BDF8180055
:10306000042805D19DF8040000F00F000A2800D0C4
:10307000022515BB002404E0385D01A90855601C39
:10308000C4B2102CF8DB05AA102101A8FEF738FD08
:1030900006A801AB122201A900900C20FFF728FF1F
:1030A00005464DB9BDF81800042805D19DF8040067
:1030B00000F00F000A2800D00225284607B0F0BD16
:1030C00000B585B00121880300F0DAF90121042060
:1030D00000F0A6F900208DF810008DF813004FF4D1
:1030E0000060039003A91348FFF723FB0B21022084
:1030F00000F0ECFA4FF40060019000208DF8080019
:1031000010208DF8090001208DF80A0001A8FFF7B2
:1031100041FA28208DF8000002208DF801008DF87A
:10312000020001208DF80300684600F009F805B0A0
:1031300000BD00000008024000BFFEE7704700002D
:1031400070B5002100230F22C4781CB3174C2468EB
:1031500004F4E064C4F5E064C4F30721C1F104049D
:10316000E3B20A4144789C40E1B2847814402143A0
:103170000C07210E0E4C05786155047804F01F05EC
:103180000124AC4005786D11AD0005F1E025C5F8CE
:10319000004109E0047804F01F050124AC40054D0E
:1031A0000678761145F8264070BD00000CED00E071
:1031B00000E400E080E100E002490143024A1160BE
:1031C000704700000000FA050CED00E070B50646FF
:1031D000002415E004F1B001C8B200F03CFD00206D
:1031E00000F039FD102000F036FD002504E03046E7
:1031F00000F038FD681CC5B2802DF8DB601CC4B23D
:10320000082CE7DB70BD10B56420FEF7C2FCAE20D1
:1032100000F021FD202000F01EFD102000F01BFD1D
:10322000B02000F018FDC82000F015FD002000F0CF
:1032300012FD102000F00FFD402000F00CFD812059
:1032400000F009FDFF2000F006FDA12000F003FDC5
:10325000A62000F000FDA82000F0FDFC3F2000F0BB
:10326000FAFCA42000F0F7FCD32000F0F4FC0020CE
:1032700000F0F1FCD52000F0EEFCF02000F0EBFCBB
:10328000D92000F0E8FC222000F0E5FCDA2000F074
:10329000E2FC122000F0DFFCDB2000F0DCFC202050
:1032A00000F0D9FC8D2000F0D6FC142000F0D3FCF7
:1032B000AF2000F0D0FC10BD70B504460D4605F1FE
:1032C000B001C8B200F0C7FC102141EA141000F0B0
:1032D000C2FC04F00F0141F0010000F0BCFC70BD25
:1032E0002DE9F04180460E46174600247D01314607
:1032F0004046FFF7E1FF00BF06E00D49485D00F0E2
:10330000B1FC6D1C601CC4B2102CF6DB701CC1B289
:103310004046FFF7D1FF002406E00549485D00F074
:10332000A1FC6D1C601CC4B2102CF6DBBDE8F08162
:10333000830000202DE9F0470646894617469A4645
:103340004FF0000800240025BAF1010F03D0BAF1B4
:10335000020F5ED125E020E0785D203800F0FF0804
:103360007E2E04DD002609F1010000F0FF09494628
:103370003046FFF7A1FF002409E008EB4801264A88
:1033800002EB4101085D00F06DFC601CC4B2062C2C
:10339000F3DBB01DC6B2681CC5B2785D0028DBD176
:1033A00037E032E0785D203800F0FF08782E04DD49
:1033B000002609F1010000F0FF0949463046FFF7F9
:1033C0007BFF002407E004EB0811144A505C00F076
:1033D00049FC601CC4B2082CF5DB09F10100C1B244
:1033E0003046FFF769FF002408E004EB08110831BC
:1033F0000A4A505C00F036FC601CC4B2082CF4DBB6
:1034000006F10800C6B2681CC5B2785D0028C9D1B3
:1034100000BF00BFBDE8F0874A7100087273000862
:1034200029B1064A12680243044B1A6004E0034AB9
:1034300012688243014B1A60704700003038024026
:1034400029B1064A12680243044B1A6004E0034A99
:1034500012688243014B1A607047000040380240F6
:1034600029B1064A12680243044B1A6004E0034A79
:1034700012688243014B1A607047000020380240F6
:1034800029B1064A12680243044B1A6004E0034A59
:1034900012688243014B1A607047000044380240B2
:1034A00029B1064A12680243044B1A6004E0034A39
:1034B00012688243014B1A607047000024380240B2
:1034C000F0B5002100220024022500260223324FFD
:1034D0003F6807F00C0121B1042905D0082937D134
:1034E00005E02E4F076036E02D4F076033E02A4F8E
:1034F0003F1F3F68C7F38056274F3F1F3F6807F0C5
:103500003F036EB1264FB7FBF3F7DFF88CC0ACF189
:10351000040CDCF800C0CCF3881C07FB0CF40CE0B6
:103520001E4FB7FBF3F7DFF870C0ACF1040CDCF80A
:1035300000C0CCF3881C07FB0CF4174F3F1F3F68FB
:10354000C7F301477F1C7D00B4FBF5F7076002E07D
:10355000124F076000BF00BF0F4F3F6807F0F00138
:103560000909104F7A5C0768D74047600A4F3F68E7
:1035700007F4E051890A0B4F7A5C4768D7408760AF
:10358000054F3F6807F46041490B064F7A5C476876
:10359000D740C760F0BD0000083802400024F400A6
:1035A00000127A00B010002070B5044680210C484B
:1035B000FFF72AF90520FEF73BFB7E2101EA4401D3
:1035C00041F0800000F013F800F00CF8054680216F
:1035D0000348FFF71BF90520FEF72AFB284670BDBC
:1035E0000004024010B5FF2003F05AF810BD10B5DA
:1035F0000446204603F054F810BD00001CB501211C
:103600004320FFF70DFF1020009001208DF80400EB
:1036100000208DF8060002208DF8050000208DF8AE
:10362000070069462348FFF784F8802000900020B7
:103630008DF804008DF8070069461F48FFF779F8F8
:103640004FF40040009001208DF8040000208DF818
:10365000060002208DF8050000208DF8070069465D
:103660001648FFF766F88020009001208DF80400CE
:1036700000208DF8060002208DF8050069461048EC
:10368000FFF757F84FF40070009001208DF8040008
:1036900000208DF8060002208DF8050000208DF82E
:1036A000070069460448FFF744F880210448FFF703
:1036B000ADF81CBD000002400008024000180240A6
:1036C00000040240014608687047704730B5002288
:1036D0008B071C0F0F2303FA04F20B4B8C1053F8CB
:1036E00024309343084C8D1044F8253023468C1029
:1036F00053F824308C07240F00FA04F42343024CBF
:103700008D1044F8253030BD0838014070B50546AD
:103710000C4600262846FFF747FF064646EA040106
:10372000284600F0A7FA70BD0CB50020019000906B
:103730003448006840F480303249086000BF3148A6
:10374000006800F4003000900198401C019000983F
:1037500018B90198B0F5A04FF1D12A48006800F4DB
:10376000003010B10120009001E00020009000988E
:10377000012846D123484030006840F0805021495C
:10378000403108602048006840F440401E4908600D
:103790001C48083000681B4908310860084600686A
:1037A00040F4004008600846006840F4A0500860FB
:1037B0001648091F0860081F006840F08070091F44
:1037C000086000BF0F48006800F000700028F9D0C2
:1037D00040F205700E4908600A480830006820F081
:1037E00003000849083108600846006840F00200FC
:1037F000086000BF03480830006800F00C0008288B
:10380000F8D10CBD00380240007000400854400759
:10381000003C02401CB5044601214020FFF700FE99
:103820008DF804404FF40070009000208DF80600E1
:103830008DF8070002208DF8050069460148FEF763
:1038400078FF1CBD0018024010B501F07DFB02F0AE
:1038500083F901F089FB10BD10B51548006840F4EC
:103860007000134908601348006840F001001149D6
:10387000086000200F49083108600E4800680E49B2
:1038800008400C4908600D48091D0860081F0068C1
:1038900020F48020091F0860002006490C310860D0
:1038A000FFF742FF4FF0006001498039086010BD0A
:1038B00088ED00E000380240FFFFF6FE10300024E3
:1038C00010B50121880700F033F80121880700F0C6
:1038D0001DF810BD10B501210A4800F029F8012893
:1038E0000BD10948006820B1002007499C310860CD
:1038F00003E0002004499C3108600121014800F0E8
:1039000005F810BD0004004018024242CA4302827A
:10391000704721B1028842F00102028004E002886F
:103920004FF6FE731A40028070470146486A70479E
:1039300030B50246002000230024158A05EA010361
:10394000958905EA010413B10CB1012000E00020C3
:1039500030BD1AB183890B43838102E083898B4395
:10396000838170474162704700220288184B984259
:103970000ED0184B98420BD0B0F1804F08D0164BA8
:10398000984205D0154B984202D0154B984204D16D
:103990004FF68F731A404B881A43124B984207D048
:1039A000114B984204D04FF6FF431A400B891A433B
:1039B00002804B68C3620B880385054B984202D096
:1039C000044B984201D18B7A03860123838270478E
:1039D00000000140000401400004004000080040D5
:1039E000000C0040001000400014004010B50024FE
:1039F00040F22551084800F069F801280BD106482B
:103A000000F01EF9C4B2204602F0B6FF40F2255184
:103A1000014800F033F810BD0010014010B540F22D
:103A20002551124800F052F801281ED10F4800F02D
:103A300007F9C1B20E4802680068401C0C4B1860C0
:103A40000C48815418460068401E0A49085C0A2840
:103A500003D0184600683F2802D3012006490860B9
:103A600040F22551014800F009F810BD004800401F
:103A70005C000020443A00206000002010B50022C5
:103A8000002340F66A14A14200D100BF0A120124AB
:103A90009440A3B2DC43048010BD21B1828942F47A
:103AA0000052828104E082894DF6FF731A408281C0
:103AB000704702460020B1F5007F00D100BF138897
:103AC0000B400BB1012000E00020704770B50246AA
:103AD000002400230025002040F66A16B14200D1E0
:103AE00000BFC1F3421501F01F03012606FA03F3DC
:103AF000012D02D19689334006E0022D02D1168AAB
:103B0000334001E0968A33400C12012606FA04F491
:103B10001688344013B10CB1012000E0002070BDC4
:103B2000F0B50346002400260025002040F66A1761
:103B3000B94200D100BF1846C1F3421401F01F067C
:103B4000012707FA06F5012C01D10C3004E0022C04
:103B500001D1103000E014301AB107682F4307601C
:103B600002E00768AF430760F0BD00002DE9FF47A2
:103B700005460E460024A14600BFA046B08900B10C
:103B800000BF2C8A24F44054F08804432C82AC8972
:103B900041F20C608443B08831890843718908433D
:103BA0000443AC81AC8A24F44074B0890443AC82F1
:103BB0006846FFF785FC2048854202D01F488542B1
:103BC00002D1DDF80C9001E0DDF80890A88900F43E
:103BD000004040B109EBC90000EB09103168490011
:103BE000B0FBF1F707E009EBC90000EB0910316801
:103BF0008900B0FBF1F76420B7FBF0F00401200965
:103C0000642101FB1078A88900F4004040B1322003
:103C100000EBC800B0FBF1F000F00700044308E03F
:103C2000322000EB08106421B0FBF1F000F00F002F
:103C300004432C81BDE8FF870010014000140140BF
:103C400001468888C0F308007047C1F308028280EB
:103C5000704700BFFEE710B5044621460020FEF77E
:103C6000C5FF10BD10B5044621464020FEF7BEFF3B
:103C700010BD000070B504460D4680210A48FEF7CD
:103C8000C3FD0520FDF7D4FF7E2101EA4400FFF7C4
:103C9000AEFC2846FFF7ABFC0520FDF7C9FF8021ED
:103CA0000148FEF7B3FD70BD0004024003B4019863
:103CB0004100009850EAC12018BF04204A0D18BFE7
:103CC00040F0010040F2FF72B2EB515F08BF40F0DC
:103CD0000200012808BF052002B07047014609B95B
:103CE00000207047C8B220B1C8B20E4A105C401C18
:103CF000F7E701F47F4028B10A48C1F30722805C4E
:103D00000930EEE701F47F0028B10648C1F307420D
:103D1000805C1130E5E7034800EB11600078193052
:103D2000DFE700006279000803490868884201D093
:103D3000012070470020FCE78C10002030380A2852
:103D400001D2012070470020704700002DE9FC5F80
:103D500004468B4615461E46DDE90C9ADDE90E78D1
:103D600004F114004060006000BF1C346560A66070
:103D7000C4F80C90C4F810A02321D4E9030201F088
:103D800053FAD4E9033C63441A1F0F4BD4E90101F1
:103D900001F0B2F82060A77667760020E061C4F8F1
:103DA0002880C4F82C8060612076E06520661C3C89
:103DB00000902346054A2146019004F14C0001F091
:103DC0004DFF0020BDE8FC9F7D580008C95A00083F
:103DD0002DE9F04704460E4617469846DDF8209038
:103DE00084F80990607A20F001006072E661276231
:103DF0000020A062C4F82480002506E004F114012C
:103E000001EBC50001F019F96D1C012DF6DBBDE8D1
:103E1000F08710B50246002001460EE002F11403BF
:103E200003EBC100D0E900436360D0E900342360B4
:103E30004060006000BF481C01460129EEDB10BD58
:103E400000BF704700B58DB001210846FFF7E8FAC2
:103E500001210802FFF714FB03208DF80800602001
:103E6000019000208DF80B0001A91248FEF761FCBB
:103E7000FDF794FD0020059003904FF480300490EE
:103E80000020069003A8FDF771FD00208DF82100A9
:103E90000B9009908DF82000079002208DF83000DB
:103EA00007A90548FDF792FD01210348FDF753FDE1
:103EB0000DB000BD00000240002001408AB000208B
:103EC000089009900490059006900790009001904A
:103ED0000290039086E044A0FCF79CFA46480078E4
:103EE000002833D04448017844A0FCF793FA00201E
:103EF00041490870474D06E047A0FCF78BFA4FF4A4
:103F0000FA6001F0B4FC10224949012002F004F9E2
:103F10001028F1D14748007800064649497840EA20
:103F200001404449897840EA01204249C978084360
:103F3000099000E02D1D2846FFF7C4FB401C002817
:103F4000F8D12846099902F033FD47E0102269466E
:103F5000002002F0E1F8102840D100240EE01DF806
:103F6000041035A0FCF756FA1DF804003049095D2D
:103F7000884202D031A0FCF74DFA641C102CEEDB15
:103F80002AA0FCF747FA234D2A4800780006294961
:103F9000497840EA01402749897840EA01202549CB
:103FA000C9780843099007E02D1D2948854203D1AF
:103FB00028A0FCF72FFA05E02846FFF783FB0999B4
:103FC0008842F1D100BF2846FFF77CFB044621461A
:103FD00025A0FCF71FFA2CA0FCF71CFA4FF47A700E
:103FE00001F045FC77E70000746872656164203376
:103FF0002072756E200D0A00031000206361726448
:104000005265676973746572466C61672025640A3E
:10401000000000000000010864617461207772698B
:104020007465206572726F722020310D0A000000E5
:104030000000002076000020202564006361726487
:104040002064617461206572726F720D0A00000055
:10405000FF1F800063617264206F70656E2065725F
:10406000726F72200D0A000053544D464C41534864
:104070005F52656164576F72642861646472782965
:104080003A20253032780A007468697320697320F9
:104090006120726967687420636172640D0A0000B0
:1040A00010B51A4800210160017119495220FEF72C
:1040B0009FFE08B1022010BD42F21070FDF7B8FD5E
:1040C0001248FEF7D9FD08B10220F4E742F2107061
:1040D000FDF7AEFD0D48FEF7C5FE08B90220EAE780
:1040E0000CA0FCF797F9002405E00848015D16A034
:1040F000FCF790F9641C052CF7DB15A0FCF78AF996
:1041000004A0FCF787F90020D5E700007600002026
:10411000810000202A2A2A2A2A2A2A2A2A2A2A2A06
:104120002A2A2A2A2A2A2A2A434152442049442A4E
:104130002A2A2A2A2A2A2A2A2A2A2A2A2A2A2A2ADF
:104140002A2A2A0A000000002530327800000000E8
:104150000A00000010B500240120FFF75BFB0020DF
:104160001949086044F62060FDF748FD0120174911
:10417000C1F8A4021E20FDF741FD0020FFF74AFB15
:1041800004E0601CC4B20120FDF738FD0E48803801
:10419000006808B1642CF4DB642C01DB012010BD45
:1041A000002404E0601CC4B20120FDF727FD06488E
:1041B0008038006808B9642CF4DB642C01DB012032
:1041C000EDE70020EBE70000A40243420000434279
:1041D00024E013A0FCF71EF900F0C2F804462146C3
:1041E00013A0FCF717F9E3B29FED150A15A21849C1
:1041F000184802F087F81E2C0DDC0021012000F089
:104200008FF9642001F033FB0121084600F088F9A2
:10421000642001F02CFBC82001F029FBD9E7000045
:1042200074687265616420312072756E200D0A0019
:1042300064697374616E63653A202564200D0A0019
:104240000000000064697374616E63650000000023
:104250000F0000204100002000B585B00121880337
:10426000FFF70EF901211020FFF7DAF800208DF892
:10427000100002208DF813004020039003A912487B
:10428000FEF757FA06210420FFF720FA402001909C
:1042900000208DF8080008208DF8090001208DF815
:1042A0000A0001A8FEF776F917208DF80000022019
:1042B0008DF801008DF8020001208DF8030068469A
:1042C000FEF73EFF05B000BD0010024070B5044689
:1042D0000D4600BF40210548FFF7EBFB0028F9D051
:1042E000A1B20248FFF7B1FC204670BD00100140AA
:1042F00070B5002500240023012206210F48FDF798
:104300008FFB0E48FDF7E8FB0AE0601CC4B2642096
:10431000FDF73FFC1E2C03D109A0FCF77BF805E05C
:1043200002210648FDF749FB0128EED100BF0348F2
:10433000FDF73FFB0546284670BD00000020014008
:104340004144435F476574466C616753746174759B
:1043500073202054696D656F75740D0A00000000AC
:1043600038B5002400202049086020A0FCF752F84E
:104370000A20FDF70EFC01202149C1F8A0020F2000
:1043800000902049486820490968204AB1FBF2F1B1
:10439000009A5143009100BF00BF1A494968091AA9
:1043A000009A9142F9D300BF00200F49086004E051
:1043B00000214FF08040FFF7D5FA0B48883800689D
:1043C0000028F5D004E04FF08040FFF7AEFA044635
:1043D0000548883800680028F5D104EB84004000C7
:1043E0003A2190FBF1F038BDA0024142206765748C
:1043F0005F73726F345F64697374616E63650A0022
:1044000000004142001000E00810002040420F0070
:1044100000B585B001218803FFF732F80121112092
:10442000FEF7FEFF00208DF810008DF8130001202C
:10443000039003A91D48FEF77CF91820039003A9F7
:104440001B48FEF776F903210420FFF73FF904210A
:104450000846FFF73BF91820019000208DF808006E
:104460000C208DF8090001208DF80A0001A8FEF744
:1044700091F809208DF8000001208DF801008DF8D9
:1044800002008DF803006846FEF75AFE0A208DF8F8
:10449000000002208DF801008DF8020001208DF847
:1044A00003006846FEF74CFE05B000BD0000024068
:1044B000001002401848006840F0300016490860BB
:1044C0001648006820F47010144908600846006817
:1044D00040F4A0100860081D006820F4C060091DA9
:1044E0000860081D006820F47010091D0860084667
:1044F000006840F420100860081D006820F4701067
:10450000091D086005481830008840F4C060034960
:104510001831088070470000303802400014024013
:10452000012810D131B1114A128842F400720F4BA8
:104530001A801AE00D4A921E128842F400720B4B48
:104540009B1E1A8011E002280FD131B1074A128850
:1045500042F48062054B1A8007E0044A921E1288DA
:1045600042F48062014B9B1E1A8070471A1402406D
:104570001FB54FF4A060FEF71FFE02F0F1F802F045
:104580004BF902F0A1F9FDF713FBFFF75BFCFEF717
:1045900097FDFFF7DFFDFFF75FFE02F0BDF8FEF7C6
:1045A000F5F9FEF7D1FBFEF72EFE01F0FDFFFFF758
:1045B0002FFF1EA0FBF72EFFFDF7F0FC14200321B8
:1045C0004FF480621E4BCDE90032CDE9021000238A
:1045D0001C4A1DA11E4801F0DFF9142003214FF4ED
:1045E00000621C4BCDE90032CDE9021000231A4ACB
:1045F0001AA11D4801F0D0F9142002214A021B4BD8
:10460000CDE90032CDE902100023194A19A11D4855
:1046100001F0C2F90E4801F01FFA134801F01CFA2C
:10462000184801F019FA002004B010BD73747261CB
:10463000727420202072756E200D0A200000000088
:1046400044110020D14100086576656E74000000B9
:10465000C4100020C4150020994600086D61696EE1
:104660006576656E7400000044150020441E00202D
:10467000BD3E0008636172644F70656E446F6F7277
:1046800000000000C41D002010B5044600F030FA00
:10469000FFF76EFF10BD00002DED088B84B09FED7D
:1046A000560AB0EE408A0020019002900390A1E0EB
:1046B00052A0FBF7AFFE5548008801283CD154A01A
:1046C000FBF7A8FE0020514908809FED4B0AFF230D
:1046D0005AA25C495C4801F015FE2BE0182200212B
:1046E0002020FEF7FDFD192200213020FEF7F8FD05
:1046F00001210220FFF714FF642001F0B8F8002127
:104700000220FFF70DFF022350A200212020FEF718
:1047100011FE02234DA200213020FEF70BFE642083
:1047200001F0A5F84A480088012803D10020484933
:10473000088000E0D2E700BFFFF7DAFD044602F090
:1047400003FB41EC1B0B9FED430B53EC102B02F0D2
:104750004BFB41EC1A0B9FED410B53EC102B02F07D
:104760009BF941EC190B02F059F908EE100A18EE0A
:10477000100A02F06DFC41EC190B53EC192B39A116
:1047800001A8FBF753FE18EE100A02F061FC41ECA1
:10479000190B53EC192B35A0FBF73CFEB0EE480A81
:1047A000002336A22749284801F0ACFD022301AAC4
:1047B00019462820FEF7BEFD18EE100A02F048FC4C
:1047C00041EC190B9FED310B53EC102B02F00AFC5E
:1047D0000DD201210220FFF7A3FE642001F047F86B
:1047E00000210220FFF79CFE642001F040F8C82061
:1047F00001F03DF85CE7000000000000746872659D
:10480000616420322072756E200D0A00560000206F
:10481000666C616D652A2A2A2A2A2A2A2A2A2A2AC5
:104820002A2A2A2A2A2A2A2A2A2A2A2A2A2A2A2AE8
:104830002A2A2A2A2A2A2A2A2A2A0A00666C616D2A
:10484000650000000F000020410000202020000033
:10485000580000206666666666660A400000000032
:1048600000FEAF40252E3266000000006D71325F01
:1048700076616C75653A202566200A00636F6D626B
:1048800075737469626C65676173000000000000F5
:104890000000044030B51A4C436824681919884256
:1048A00015D04B889BB9174B1B6899420FD0164BFC
:1048B0001B688B4201D1144B18604B684360104B4E
:1048C0001B68C31A0E4D4C682D682C44A3600C4C19
:1048D000836824681A19824211D053887BB90A4B25
:1048E0001B68834201D1084B1A6043685360044B34
:1048F0001B68D31A024D44682D682C44A36030BD58
:1049000024100020281000202C1000202DE9F04F4A
:1049100086B00D469C46DDE9106401960F9B04F0BD
:104920004008B8F1000F02D0DFF8708101E0DFF835
:104930007081CDF8008004F01008B8F1000F01D0AC
:1049400024F0010404F00108B8F1000F02D04FF088
:10495000300801E04FF02008C246002704F00208AA
:10496000B8F1000F11D0002A02DA2D2752420CE0D4
:1049700004F00408B8F1000F01D02B2705E004F083
:104980000808B8F1000F00D02027002142B94FF0ED
:10499000300B8846491C0DF1080909F808B01DE0E4
:1049A0001AE0E146B9F10A0F08D14FF00A0BB2FB49
:1049B000FBFE0BFB1E28B2FBFBF202E002F00F082D
:1049C000120900BFDDF8009019F808B08846491CAC
:1049D0000DF1080909F808B0002AE2D1B14200DD62
:1049E0000E469B1B04F01108B8F1000F10D117B14F
:1049F000002B00DD5B1E06E0A84203D84FF0200824
:104A000080F80080401CB3F10008A3F10103F3DC3F
:104A100027B1A84201D807705B1E401C04F01008A3
:104A2000B8F1000F0AD104E0A84201D880F800A034
:104A3000401CB3F10008A3F10103F5DC06E0A84235
:104A400003D84FF0300880F80080401CB046761E36
:104A50008845F4DC08E0A84205D80DF1080818F8EC
:104A6000018080F80080401CB1F10008A1F1010133
:104A700004DDDDF80480B8F1000FECD106E0A842B7
:104A800003D84FF0200880F80080401CB3F10008E4
:104A9000A3F10103F3DC06B0BDE8F08F737A0008E0
:104AA000627A00081CB514200A214FF4007300221A
:104AB000CDE90010044905A000F0B1FE04462046EF
:104AC00000F0CAFF1CBD0000894600086D61696ED8
:104AD0000000000010B5044C02E020688047241D4F
:104AE00002488442F9D310BDCC7B0008D07B00087B
:104AF00010B5044C02E020688047241D024884421F
:104B0000F9D310BDD07B0008D47B000810B5FBF7AB
:104B1000E5FB044604480088401C00B202490880B6
:104B20002046FBF7DFFB10BD7C10002010B5FBF723
:104B3000D5FB04460B480088401E00B20949088096
:104B40000846B0F90000002807DC00200880204655
:104B5000FBF7C8FB00F014FC02E02046FBF7C2FBA9
:104B600010BD00007C10002070B5054605B970BD71
:104B70001D480068854203D31C480068854200D365
:104B8000F5E7A5F10C044FF0FF31194800F0C8FC1F
:104B9000608818B12088B0F5F55F08D015A000F046
:104BA00031FA23886288214619A000F02BFA0020F0
:104BB00060804FF4F550208021480068844201D283
:104BC0001F480460084960680968611A401A1D4955
:104BD0000968081A1B4908602046FFF75BFE044875
:104BE00000F07BFC00BFC2E724100020281000204A
:104BF000843E0020746F20667265652061206261CA
:104C000064206461746120626C6F636B3A0A000017
:104C10006D656D3A203078253038782C20757365B5
:104C20006420666C61673A2025642C206D61676999
:104C30006320636F64653A203078253034780A0049
:104C40002C1000203410002000487047442200201F
:104C500000487047443A002070B5FFF72BFC194814
:104C600000684FF47A72B0FBF2F1481EB0F1807F19
:104C700000D31BE0481E4FF0E022506150170F2276
:104C8000002807DA13071D0E0F4B00F00F04241F36
:104C90001D5503E013071C0E0C4B1C5400BF0020D5
:104CA0004FF0E02290610720106100BFFFF712FF74
:104CB000FFF7CEFF0446FFF7C7FF0546214600F089
:104CC000E5FC70BD0810002018ED00E000E400E0F5
:104CD000704700002DE9F041054605F128062C1D1E
:104CE0003148006840B130462F4909688847074677
:104CF0000FB9BDE8F08100BF2CA0216C00F082F953
:104D00002EA0616A00F07EF930A0A16A00F07AF965
:104D100032A0E16A00F076F934A0216B00F072F95C
:104D200036A0616800F06EF938A0A16800F06AF959
:104D30003AA0E16800F066F93CA0216900F062F950
:104D40003EA0616900F05EF940A0A16900F05AF947
:104D500042A0E16900F056F944A0216A00F052F93E
:104D600046A0616B00F04EF948A0A16B00F04AF933
:104D70004AA0E16B00F046F9287800F0040038B151
:104D800000F042FE0746394648A000F03BF902E039
:104D90004EA000F037F9287800F0100010B952A0AA
:104DA00000F030F900BFFEE7AC1000207073723ADB
:104DB000203078253038780A000000007230303A10
:104DC000203078253038780A000000007230313AFF
:104DD000203078253038780A000000007230323AEE
:104DE000203078253038780A000000007230333ADD
:104DF000203078253038780A000000007230343ACC
:104E0000203078253038780A000000007230353ABA
:104E1000203078253038780A000000007230363AA9
:104E2000203078253038780A000000007230373A98
:104E3000203078253038780A000000007230383A87
:104E4000203078253038780A000000007230393A76
:104E5000203078253038780A000000007231303A6E
:104E6000203078253038780A000000007231313A5D
:104E7000203078253038780A000000007231323A4C
:104E8000203078253038780A00000000206C723A13
:104E9000203078253038780A000000002070633A0E
:104EA000203078253038780A00000000686172648C
:104EB000206661756C74206F6E2074687265616421
:104EC0003A2025730D0A0D0A000000006861726423
:104ED000206661756C74206F6E2068616E646C650D
:104EE000720D0A0D0A000000465055206163746976
:104EF0007665210D0A000000F0B504460D46164601
:104F0000301D20F0070044380146002203E00D4F19
:104F100041F82270521C112AF9D34D624FF0000C57
:104F2000C1F828C0C1F82CC0C1F830C0C1F834C0E5
:104F30008B63CC634FF0807CC1F840C000270F60CA
:104F4000F0BD0000EFBEADDE10B5FBF7C7F90446BB
:104F500004480078401C034908702046FBF7C2F95A
:104F600010BD00002010002010B5FBF7B7F9044673
:104F700004480078401E034908702046FBF7B2F948
:104F800010BD0000201000202DE9F04105460C4620
:104F90009046204600F076FDB8F1000F03D0B8F13E
:104FA000010F23D105E004F11401284600F05DF85B
:104FB0001CE02E680FE0A6F1140794F8350097F86E
:104FC0003510884206DA04F1140107F1140000F0EC
:104FD0004CF802E03668AE42EDD100BFAE4204D1DB
:104FE00004F11401284600F040F800BF00BF002083
:104FF000BDE8F081014601F114004060006000BF8F
:10500000002070470FB438B505A800907F210848EC
:10501000009B049A00F0CEFE04467F2C00D97F242A
:105020000348FFF755FE0020009038BC5DF814FBE4
:10503000043E0020406000607047406000607047A0
:105040000268516002680A60016048607047026847
:10505000516002680A6001604860704702685160F0
:1050600002680A60016048607047426811604268E7
:105070004A6041600860704701460868884201D173
:10508000012070470020FCE701460868884201D1F2
:10509000012070470020FCE7D0E900215160D0E9F1
:1050A00000121160406000607047D0E9002151603B
:1050B000D0E9001211604060006070472DE9F041B6
:1050C000054615B90020BDE8F081E81C20F0030575
:1050D0004E480068854201D90020F4E70C2D00D22B
:1050E0000C254FF0FF314A4800F01AFA4948006891
:1050F00049490968461A7EE0474800688419608873
:10510000002874D106F10C006168081AA8426ED319
:1051100006F10C006168091A05F11800814230D3CC
:1051200006F10C0000EB05083B48006800EB08079F
:105130004FF4F55038800020788060687860BE6059
:10514000C4F80480012060803048796800680C3021
:10515000814205D03049786809680844C0F8088061
:105160002E48016805F10C0008442C4908602C48C1
:1051700000680968884219D22848006828490860F0
:1051800014E001206080244960680968611A401AAF
:1051900022490968084421490860214800680968D3
:1051A000884203D21D4800681D4908604FF4F5503D
:1051B000208018480068844212D107E01548006832
:1051C0004068154909680844124908601148006898
:1051D000408828B10F480068124909688842EDD11B
:1051E0000B4800F07AF904F10C006CE7FFE70A487D
:1051F00000683044466805480068401BB0423FF6EE
:105200007BAF034800F069F900205CE73010002014
:10521000843E00202C100020241000203410002098
:105220003810002028100020F0B50C460546E6B2E4
:10523000042A15D300F0030797B9014646EA06236E
:1052400043EA034304E008C108C108C108C1103A99
:10525000102AF8D201E008C1121F042AFBD20D4621
:1052600001E005F8016B171EA2F10102F9D1F0BDB2
:105270002DE9F04106460F46304600F045F8054658
:10528000E868FFF71BFF044614B90020BDE8F08171
:1052900000212046EA68FFF7C7FF267200206072EF
:1052A00008223946204600F0D6F9FBF717F8804669
:1052B00004F10C01281DFFF7C3FE4046FBF712F86E
:1052C0002046E3E770B5044600202072FBF706F89D
:1052D000054604F10C00FFF7DFFE2846FBF702F855
:1052E0002046FFF741FC70BD70B5044600202072D7
:1052F000FAF7F4FF054604F10C00FFF7CDFE28464F
:10530000FAF7F0FF70BD0000024600210AE00748EE
:1053100000EB01100078904203D1044800EB01102B
:105320007047491C0429F2DB0020F9E73C100020FB
:105330002DE9F04104460D4616462846FFF7E4FFE6
:10534000074645F08000207208223146204600F0D2
:1053500082F9FAF7C3FF804604F10C01381DFFF70C
:105360006FFE4046FAF7BEFFBDE8F0810146087ABD
:1053700000F0800008B1012070470020FCE7000029
:105380002DE9F041FAF7AAFF07461B48008868BBE1
:105390001A480068FEF7A2FC461E194850F836006D
:1053A000A0F114041748006884421BD016490E70FF
:1053B0001448056804601548007848B904F11C01D8
:1053C00005F11C00FAF791FF3846FAF78BFF0CE065
:1053D00004F11C0105F11C00FAF787FF3846FAF7C3
:1053E00081FF02E03846FAF77DFF02E03846FAF71F
:1053F00079FFBDE8F08100007C10002088100020BB
:10540000A43E0020801000208410002020100020E6
:1054100070B50446FAF762FF054614F8340F20F021
:105420000F0040F0010020706278343C0A4B03EB1F
:10543000C20004F114014268116042684A60416090
:10544000086000BF0549A06B09680843034908606C
:105450002846FAF747FF70BDA43E002088100020C0
:1054600070B50446FAF73AFF054604F11400D0E996
:1054700000215160D0E9001211604060006000BF5F
:1054800094F83510094A02EBC1000168814201D14C
:10549000012100E0002129B10548A16B0068884383
:1054A000034908602846FAF71DFF70BDA43E00209E
:1054B000881000202DE9F04104460D4616461F468F
:1054C0002A4601212046FFF733FF2046FFF792FDD1
:1054D000A68367720020BDE8F0812DE9F041044603
:1054E0000025FAF7FBFE074604F11400FFF7C4FDA0
:1054F00048B900BF6069A0F11406304600F066FAB2
:1055000000BF012502E0A08B401CA0833846FAF7BB
:10551000E9FE012D01D1FFF733FF0020BDE8F08146
:1055200073B50546FAF7DAFE0646A88B002806DDB5
:10553000A88B401EA8833046FAF7D4FE28E00198D5
:1055400028B93046FAF7CEFE6FF001007CBD00F0BE
:105550005BFA0446002020636A7A214605F11400B4
:10556000FFF712FD0198002809DD01AA002104F1CE
:105570004C0000F047FB04F14C0000F087FB304684
:10558000FAF7B0FEFFF7FCFE206B08B1206BDDE7F9
:105590000020DBE708B509A0FFF734FD0AA0FFF7FC
:1055A00031FD12A0022301220321009012A0FFF777
:1055B00029FD19A0FFF726FD08BD00000A205C2088
:1055C0007C202F0A000000002D205254202D202086
:1055D000202020546872656164204F706572617488
:1055E000696E672053797374656D0A00417072208B
:1055F0002036203230323000202F207C205C2020CA
:1056000020202025642E25642E2564206275696C77
:10561000642025730A0000002032303036202D200F
:105620003230313920436F70797269676874206253
:10563000792072742D746872656164207465616D7F
:105640000A00000001460A4600E0521C10780028BB
:10565000FBD1501A704770B50346A2B118460C46EC
:1056600000BF14F8016B00F8016B3EB902E00025A1
:1056700000F8015B551E2A1EF9D102E0551E2A1EB4
:10568000EFD100BF00BF184670BD00002DE9F0410A
:1056900005460E46E81C20F0030726F00308B8F183
:1056A000180F09D9A8F11800B84205D3A8EB0700D4
:1056B00018381E49086006E0324629461CA0FFF74C
:1056C000A1FCBDE8F0812948076004684FF4F5505B
:1056D0002080164800680C3060600020A060608068
:1056E0002249606809680844214908604FF4F55070
:1056F0000968088001201E49096848800B48006835
:105700000C301B4909684860084800680C3018498B
:10571000096888600023012216A11848FFF7CAFE15
:10572000124800681649086000BFCAE73010002020
:105730006D656D20696E69742C206572726F7220C0
:10574000626567696E206164647265737320307886
:1057500025782C20616E6420656E6420616464721B
:1057600065737320307825780A000000241000202B
:10577000281000206865617000000000843E002051
:105780002C10002010B500200B490880002405E0F3
:105790000A4901EBC400FFF74DFC641C202CF7DB29
:1057A0001F20074908700020064908600649086064
:1057B0000648FFF73FFC10BD7C100020A43E0020EF
:1057C0008410002080100020881000208C10002001
:1057D00070B508480068FEF781FA451E064850F883
:1057E0003500A0F114040548046004F11C00FAF728
:1057F000C2FD70BD88100020A43E00208010002053
:1058000010B5002405E0044901EBC400FFF715FCC6
:10581000641C002CF7D010BD9410002070472DE9B7
:10582000FF5F06460F4690461D46DDE90EAB31464A
:105830000020FFF71DFD8146B9F1000F03D10020C4
:1058400004B0BDE8F09F2846FFF738FC044624B9B1
:105850004846FFF737FD0020F2E743463A46314617
:1058600048468DE8300CFEF771FA4846E8E710B577
:105870000446204600F0CEF810BD000070B5124876
:105880000468FAF72BFD05462046FFF7E9FD0420E2
:1058900084F8340004F14C0000F0D0F92046FFF702
:1058A00065FD012805D1A06F18B92046FFF71CFD42
:1058B00004E004F114010548FFF7C9FB2846FAF794
:1058C00011FDFFF75DFD70BD801000208C100020E1
:1058D00001E000F001F8FCE770B537E0FAF7FEFCF4
:1058E0000546FEF721FA18B31B480068A0F114041E
:1058F00004F11400D0E900215160D0E900121160D8
:105900004060006000BFFFF701F9A06F10B12046B2
:10591000A16F88472046FFF729FD012805D1FFF731
:1059200005F92846FAF7DEFC70BDFFF7FFF803E043
:105930002846FAF7D7FCF7E72846FAF7D3FCA06A1F
:10594000FFF712F92046FFF7BDFC00BFFEF7ECF9A8
:105950000028C3D100BFE7E78C1000201FB520202E
:105960001F21C200074BCDE90032CDE90210002310
:10597000054A06A1074800F00FF8064800F06CF849
:105980001FBD0000043D0020D15800087469646CFC
:1059900065000000843C00202DE9FF5F05460C46B1
:1059A00016461F46DDE910ABDDE90E8922460021CF
:1059B0002846FFF7BDFC3B463246214628468DE887
:1059C000000FFEF7C3F904B0BDE8F09F70B50446C0
:1059D00094F8340000F00F00022802D04FF0FF309E
:1059E00070BDFAF77BFC054604F11400FFF75DFB80
:1059F00004F14C0000F0C6F92846FAF773FC204683
:105A0000FFF706FD0020EBE7014800687047000043
:105A10008010002031B5FAF761FC05460D48046896
:105A2000204600F02FF86A46002104F14C0000F0F7
:105A3000E9F804F14C0000F029F92846FAF752FC85
:105A4000FFF79EFC206B801C08B90020206300201B
:105A500038BD00008010002010B504463434A07812
:105A600060706178012088406060022004F8340989
:105A70002046FFF7ABFFFFF7C7FF08B1FFF780FC39
:105A8000002010BD70B5044694F8340000F00F00FB
:105A9000012802D04FF0FF3070BDFAF71FFC054619
:105AA00094F8340020F00F0040F0020084F8340035
:105AB0002046FFF7D5FC04F14C0000F063F92846BE
:105AC000FAF710FC0020E7E770B5044625466FF0B2
:105AD0000100286305F11400FFF7E7FA2846FFF7F5
